{
    "abi": [
        {
            "type": "constructor",
            "inputs": [
                {
                    "name": "_owner",
                    "type": "address",
                    "internalType": "address"
                },
                {
                    "name": "_stakingToken",
                    "type": "address",
                    "internalType": "address"
                }
            ],
            "stateMutability": "nonpayable"
        },
        {
            "type": "receive",
            "stateMutability": "payable"
        },
        {
            "type": "function",
            "name": "BIG_PRIZE_RATE",
            "inputs": [],
            "outputs": [
                {
                    "name": "",
                    "type": "uint256",
                    "internalType": "uint256"
                }
            ],
            "stateMutability": "view"
        },
        {
            "type": "function",
            "name": "CYCLE_DURATION",
            "inputs": [],
            "outputs": [
                {
                    "name": "",
                    "type": "uint256",
                    "internalType": "uint256"
                }
            ],
            "stateMutability": "view"
        },
        {
            "type": "function",
            "name": "MEDIUM_PRIZE_RATE",
            "inputs": [],
            "outputs": [
                {
                    "name": "",
                    "type": "uint256",
                    "internalType": "uint256"
                }
            ],
            "stateMutability": "view"
        },
        {
            "type": "function",
            "name": "MIN_STAKE_AMOUNT",
            "inputs": [],
            "outputs": [
                {
                    "name": "",
                    "type": "uint256",
                    "internalType": "uint256"
                }
            ],
            "stateMutability": "view"
        },
        {
            "type": "function",
            "name": "SMALL_PRIZE_RATE",
            "inputs": [],
            "outputs": [
                {
                    "name": "",
                    "type": "uint256",
                    "internalType": "uint256"
                }
            ],
            "stateMutability": "view"
        },
        {
            "type": "function",
            "name": "TICKET_PRICE",
            "inputs": [],
            "outputs": [
                {
                    "name": "",
                    "type": "uint256",
                    "internalType": "uint256"
                }
            ],
            "stateMutability": "view"
        },
        {
            "type": "function",
            "name": "TOTAL_WIN_RATE",
            "inputs": [],
            "outputs": [
                {
                    "name": "",
                    "type": "uint256",
                    "internalType": "uint256"
                }
            ],
            "stateMutability": "view"
        },
        {
            "type": "function",
            "name": "approve",
            "inputs": [
                {
                    "name": "to",
                    "type": "address",
                    "internalType": "address"
                },
                {
                    "name": "tokenId",
                    "type": "uint256",
                    "internalType": "uint256"
                }
            ],
            "outputs": [],
            "stateMutability": "nonpayable"
        },
        {
            "type": "function",
            "name": "balanceOf",
            "inputs": [
                {
                    "name": "owner",
                    "type": "address",
                    "internalType": "address"
                }
            ],
            "outputs": [
                {
                    "name": "",
                    "type": "uint256",
                    "internalType": "uint256"
                }
            ],
            "stateMutability": "view"
        },
        {
            "type": "function",
            "name": "buyTicket",
            "inputs": [],
            "outputs": [],
            "stateMutability": "payable"
        },
        {
            "type": "function",
            "name": "claimPrize",
            "inputs": [
                {
                    "name": "tokenId",
                    "type": "uint256",
                    "internalType": "uint256"
                }
            ],
            "outputs": [],
            "stateMutability": "nonpayable"
        },
        {
            "type": "function",
            "name": "claimStakingReward",
            "inputs": [
                {
                    "name": "cycle",
                    "type": "uint256",
                    "internalType": "uint256"
                }
            ],
            "outputs": [],
            "stateMutability": "nonpayable"
        },
        {
            "type": "function",
            "name": "currentCycle",
            "inputs": [],
            "outputs": [
                {
                    "name": "",
                    "type": "uint256",
                    "internalType": "uint256"
                }
            ],
            "stateMutability": "view"
        },
        {
            "type": "function",
            "name": "cycleStakers",
            "inputs": [
                {
                    "name": "",
                    "type": "uint256",
                    "internalType": "uint256"
                },
                {
                    "name": "",
                    "type": "uint256",
                    "internalType": "uint256"
                }
            ],
            "outputs": [
                {
                    "name": "",
                    "type": "address",
                    "internalType": "address"
                }
            ],
            "stateMutability": "view"
        },
        {
            "type": "function",
            "name": "cycleStartTime",
            "inputs": [],
            "outputs": [
                {
                    "name": "",
                    "type": "uint256",
                    "internalType": "uint256"
                }
            ],
            "stateMutability": "view"
        },
        {
            "type": "function",
            "name": "cycles",
            "inputs": [
                {
                    "name": "",
                    "type": "uint256",
                    "internalType": "uint256"
                }
            ],
            "outputs": [
                {
                    "name": "totalStaked",
                    "type": "uint256",
                    "internalType": "uint256"
                },
                {
                    "name": "totalTickets",
                    "type": "uint256",
                    "internalType": "uint256"
                },
                {
                    "name": "totalSales",
                    "type": "uint256",
                    "internalType": "uint256"
                },
                {
                    "name": "rewardPool",
                    "type": "uint256",
                    "internalType": "uint256"
                },
                {
                    "name": "isFinalized",
                    "type": "bool",
                    "internalType": "bool"
                }
            ],
            "stateMutability": "view"
        },
        {
            "type": "function",
            "name": "emergencyWithdraw",
            "inputs": [],
            "outputs": [],
            "stateMutability": "nonpayable"
        },
        {
            "type": "function",
            "name": "finalizeCycle",
            "inputs": [],
            "outputs": [],
            "stateMutability": "nonpayable"
        },
        {
            "type": "function",
            "name": "getApproved",
            "inputs": [
                {
                    "name": "tokenId",
                    "type": "uint256",
                    "internalType": "uint256"
                }
            ],
            "outputs": [
                {
                    "name": "",
                    "type": "address",
                    "internalType": "address"
                }
            ],
            "stateMutability": "view"
        },
        {
            "type": "function",
            "name": "getCurrentCycleTimeLeft",
            "inputs": [],
            "outputs": [
                {
                    "name": "",
                    "type": "uint256",
                    "internalType": "uint256"
                }
            ],
            "stateMutability": "view"
        },
        {
            "type": "function",
            "name": "getCycleInfo",
            "inputs": [
                {
                    "name": "cycle",
                    "type": "uint256",
                    "internalType": "uint256"
                }
            ],
            "outputs": [
                {
                    "name": "totalStaked",
                    "type": "uint256",
                    "internalType": "uint256"
                },
                {
                    "name": "totalTickets",
                    "type": "uint256",
                    "internalType": "uint256"
                },
                {
                    "name": "totalSales",
                    "type": "uint256",
                    "internalType": "uint256"
                },
                {
                    "name": "rewardPool",
                    "type": "uint256",
                    "internalType": "uint256"
                },
                {
                    "name": "isFinalized",
                    "type": "bool",
                    "internalType": "bool"
                }
            ],
            "stateMutability": "view"
        },
        {
            "type": "function",
            "name": "getStakedAmount",
            "inputs": [
                {
                    "name": "staker",
                    "type": "address",
                    "internalType": "address"
                },
                {
                    "name": "cycle",
                    "type": "uint256",
                    "internalType": "uint256"
                }
            ],
            "outputs": [
                {
                    "name": "",
                    "type": "uint256",
                    "internalType": "uint256"
                }
            ],
            "stateMutability": "view"
        },
        {
            "type": "function",
            "name": "getStakingReward",
            "inputs": [
                {
                    "name": "staker",
                    "type": "address",
                    "internalType": "address"
                },
                {
                    "name": "cycle",
                    "type": "uint256",
                    "internalType": "uint256"
                }
            ],
            "outputs": [
                {
                    "name": "",
                    "type": "uint256",
                    "internalType": "uint256"
                }
            ],
            "stateMutability": "view"
        },
        {
            "type": "function",
            "name": "getTicketInfo",
            "inputs": [
                {
                    "name": "tokenId",
                    "type": "uint256",
                    "internalType": "uint256"
                }
            ],
            "outputs": [
                {
                    "name": "",
                    "type": "tuple",
                    "internalType": "struct PledgedLottery.TicketInfo",
                    "components": [
                        {
                            "name": "cycle",
                            "type": "uint256",
                            "internalType": "uint256"
                        },
                        {
                            "name": "owner",
                            "type": "address",
                            "internalType": "address"
                        },
                        {
                            "name": "isRedeemed",
                            "type": "bool",
                            "internalType": "bool"
                        },
                        {
                            "name": "prizeType",
                            "type": "uint256",
                            "internalType": "uint256"
                        },
                        {
                            "name": "prizeAmount",
                            "type": "uint256",
                            "internalType": "uint256"
                        }
                    ]
                }
            ],
            "stateMutability": "view"
        },
        {
            "type": "function",
            "name": "getUserTickets",
            "inputs": [
                {
                    "name": "user",
                    "type": "address",
                    "internalType": "address"
                }
            ],
            "outputs": [
                {
                    "name": "",
                    "type": "uint256[]",
                    "internalType": "uint256[]"
                }
            ],
            "stateMutability": "view"
        },
        {
            "type": "function",
            "name": "isApprovedForAll",
            "inputs": [
                {
                    "name": "owner",
                    "type": "address",
                    "internalType": "address"
                },
                {
                    "name": "operator",
                    "type": "address",
                    "internalType": "address"
                }
            ],
            "outputs": [
                {
                    "name": "",
                    "type": "bool",
                    "internalType": "bool"
                }
            ],
            "stateMutability": "view"
        },
        {
            "type": "function",
            "name": "name",
            "inputs": [],
            "outputs": [
                {
                    "name": "",
                    "type": "string",
                    "internalType": "string"
                }
            ],
            "stateMutability": "view"
        },
        {
            "type": "function",
            "name": "owner",
            "inputs": [],
            "outputs": [
                {
                    "name": "",
                    "type": "address",
                    "internalType": "address"
                }
            ],
            "stateMutability": "view"
        },
        {
            "type": "function",
            "name": "ownerOf",
            "inputs": [
                {
                    "name": "tokenId",
                    "type": "uint256",
                    "internalType": "uint256"
                }
            ],
            "outputs": [
                {
                    "name": "",
                    "type": "address",
                    "internalType": "address"
                }
            ],
            "stateMutability": "view"
        },
        {
            "type": "function",
            "name": "renounceOwnership",
            "inputs": [],
            "outputs": [],
            "stateMutability": "nonpayable"
        },
        {
            "type": "function",
            "name": "safeTransferFrom",
            "inputs": [
                {
                    "name": "from",
                    "type": "address",
                    "internalType": "address"
                },
                {
                    "name": "to",
                    "type": "address",
                    "internalType": "address"
                },
                {
                    "name": "tokenId",
                    "type": "uint256",
                    "internalType": "uint256"
                }
            ],
            "outputs": [],
            "stateMutability": "nonpayable"
        },
        {
            "type": "function",
            "name": "safeTransferFrom",
            "inputs": [
                {
                    "name": "from",
                    "type": "address",
                    "internalType": "address"
                },
                {
                    "name": "to",
                    "type": "address",
                    "internalType": "address"
                },
                {
                    "name": "tokenId",
                    "type": "uint256",
                    "internalType": "uint256"
                },
                {
                    "name": "data",
                    "type": "bytes",
                    "internalType": "bytes"
                }
            ],
            "outputs": [],
            "stateMutability": "nonpayable"
        },
        {
            "type": "function",
            "name": "setApprovalForAll",
            "inputs": [
                {
                    "name": "operator",
                    "type": "address",
                    "internalType": "address"
                },
                {
                    "name": "approved",
                    "type": "bool",
                    "internalType": "bool"
                }
            ],
            "outputs": [],
            "stateMutability": "nonpayable"
        },
        {
            "type": "function",
            "name": "stakeTokens",
            "inputs": [
                {
                    "name": "amount",
                    "type": "uint256",
                    "internalType": "uint256"
                }
            ],
            "outputs": [],
            "stateMutability": "nonpayable"
        },
        {
            "type": "function",
            "name": "stakingToken",
            "inputs": [],
            "outputs": [
                {
                    "name": "",
                    "type": "address",
                    "internalType": "contract IERC20"
                }
            ],
            "stateMutability": "view"
        },
        {
            "type": "function",
            "name": "supportsInterface",
            "inputs": [
                {
                    "name": "interfaceId",
                    "type": "bytes4",
                    "internalType": "bytes4"
                }
            ],
            "outputs": [
                {
                    "name": "",
                    "type": "bool",
                    "internalType": "bool"
                }
            ],
            "stateMutability": "view"
        },
        {
            "type": "function",
            "name": "symbol",
            "inputs": [],
            "outputs": [
                {
                    "name": "",
                    "type": "string",
                    "internalType": "string"
                }
            ],
            "stateMutability": "view"
        },
        {
            "type": "function",
            "name": "tickets",
            "inputs": [
                {
                    "name": "",
                    "type": "uint256",
                    "internalType": "uint256"
                }
            ],
            "outputs": [
                {
                    "name": "cycle",
                    "type": "uint256",
                    "internalType": "uint256"
                },
                {
                    "name": "owner",
                    "type": "address",
                    "internalType": "address"
                },
                {
                    "name": "isRedeemed",
                    "type": "bool",
                    "internalType": "bool"
                },
                {
                    "name": "prizeType",
                    "type": "uint256",
                    "internalType": "uint256"
                },
                {
                    "name": "prizeAmount",
                    "type": "uint256",
                    "internalType": "uint256"
                }
            ],
            "stateMutability": "view"
        },
        {
            "type": "function",
            "name": "tokenURI",
            "inputs": [
                {
                    "name": "tokenId",
                    "type": "uint256",
                    "internalType": "uint256"
                }
            ],
            "outputs": [
                {
                    "name": "",
                    "type": "string",
                    "internalType": "string"
                }
            ],
            "stateMutability": "view"
        },
        {
            "type": "function",
            "name": "transferFrom",
            "inputs": [
                {
                    "name": "from",
                    "type": "address",
                    "internalType": "address"
                },
                {
                    "name": "to",
                    "type": "address",
                    "internalType": "address"
                },
                {
                    "name": "tokenId",
                    "type": "uint256",
                    "internalType": "uint256"
                }
            ],
            "outputs": [],
            "stateMutability": "nonpayable"
        },
        {
            "type": "function",
            "name": "transferOwnership",
            "inputs": [
                {
                    "name": "newOwner",
                    "type": "address",
                    "internalType": "address"
                }
            ],
            "outputs": [],
            "stateMutability": "nonpayable"
        },
        {
            "type": "function",
            "name": "unstakeTokens",
            "inputs": [
                {
                    "name": "amount",
                    "type": "uint256",
                    "internalType": "uint256"
                }
            ],
            "outputs": [],
            "stateMutability": "nonpayable"
        },
        {
            "type": "function",
            "name": "userTickets",
            "inputs": [
                {
                    "name": "",
                    "type": "address",
                    "internalType": "address"
                },
                {
                    "name": "",
                    "type": "uint256",
                    "internalType": "uint256"
                }
            ],
            "outputs": [
                {
                    "name": "",
                    "type": "uint256",
                    "internalType": "uint256"
                }
            ],
            "stateMutability": "view"
        },
        {
            "type": "event",
            "name": "Approval",
            "inputs": [
                {
                    "name": "owner",
                    "type": "address",
                    "indexed": true,
                    "internalType": "address"
                },
                {
                    "name": "approved",
                    "type": "address",
                    "indexed": true,
                    "internalType": "address"
                },
                {
                    "name": "tokenId",
                    "type": "uint256",
                    "indexed": true,
                    "internalType": "uint256"
                }
            ],
            "anonymous": false
        },
        {
            "type": "event",
            "name": "ApprovalForAll",
            "inputs": [
                {
                    "name": "owner",
                    "type": "address",
                    "indexed": true,
                    "internalType": "address"
                },
                {
                    "name": "operator",
                    "type": "address",
                    "indexed": true,
                    "internalType": "address"
                },
                {
                    "name": "approved",
                    "type": "bool",
                    "indexed": false,
                    "internalType": "bool"
                }
            ],
            "anonymous": false
        },
        {
            "type": "event",
            "name": "CycleStarted",
            "inputs": [
                {
                    "name": "cycle",
                    "type": "uint256",
                    "indexed": true,
                    "internalType": "uint256"
                },
                {
                    "name": "startTime",
                    "type": "uint256",
                    "indexed": false,
                    "internalType": "uint256"
                }
            ],
            "anonymous": false
        },
        {
            "type": "event",
            "name": "LotteryDrawn",
            "inputs": [
                {
                    "name": "cycle",
                    "type": "uint256",
                    "indexed": true,
                    "internalType": "uint256"
                },
                {
                    "name": "totalWinners",
                    "type": "uint256",
                    "indexed": false,
                    "internalType": "uint256"
                }
            ],
            "anonymous": false
        },
        {
            "type": "event",
            "name": "OwnershipTransferred",
            "inputs": [
                {
                    "name": "previousOwner",
                    "type": "address",
                    "indexed": true,
                    "internalType": "address"
                },
                {
                    "name": "newOwner",
                    "type": "address",
                    "indexed": true,
                    "internalType": "address"
                }
            ],
            "anonymous": false
        },
        {
            "type": "event",
            "name": "PrizeClaimed",
            "inputs": [
                {
                    "name": "winner",
                    "type": "address",
                    "indexed": true,
                    "internalType": "address"
                },
                {
                    "name": "tokenId",
                    "type": "uint256",
                    "indexed": true,
                    "internalType": "uint256"
                },
                {
                    "name": "prizeAmount",
                    "type": "uint256",
                    "indexed": false,
                    "internalType": "uint256"
                },
                {
                    "name": "prizeType",
                    "type": "uint256",
                    "indexed": false,
                    "internalType": "uint256"
                }
            ],
            "anonymous": false
        },
        {
            "type": "event",
            "name": "StakingRewardClaimed",
            "inputs": [
                {
                    "name": "staker",
                    "type": "address",
                    "indexed": true,
                    "internalType": "address"
                },
                {
                    "name": "amount",
                    "type": "uint256",
                    "indexed": false,
                    "internalType": "uint256"
                },
                {
                    "name": "cycle",
                    "type": "uint256",
                    "indexed": false,
                    "internalType": "uint256"
                }
            ],
            "anonymous": false
        },
        {
            "type": "event",
            "name": "TicketMinted",
            "inputs": [
                {
                    "name": "buyer",
                    "type": "address",
                    "indexed": true,
                    "internalType": "address"
                },
                {
                    "name": "tokenId",
                    "type": "uint256",
                    "indexed": true,
                    "internalType": "uint256"
                },
                {
                    "name": "cycle",
                    "type": "uint256",
                    "indexed": false,
                    "internalType": "uint256"
                }
            ],
            "anonymous": false
        },
        {
            "type": "event",
            "name": "TokensStaked",
            "inputs": [
                {
                    "name": "staker",
                    "type": "address",
                    "indexed": true,
                    "internalType": "address"
                },
                {
                    "name": "amount",
                    "type": "uint256",
                    "indexed": false,
                    "internalType": "uint256"
                },
                {
                    "name": "cycle",
                    "type": "uint256",
                    "indexed": false,
                    "internalType": "uint256"
                }
            ],
            "anonymous": false
        },
        {
            "type": "event",
            "name": "TokensUnstaked",
            "inputs": [
                {
                    "name": "staker",
                    "type": "address",
                    "indexed": true,
                    "internalType": "address"
                },
                {
                    "name": "amount",
                    "type": "uint256",
                    "indexed": false,
                    "internalType": "uint256"
                },
                {
                    "name": "cycle",
                    "type": "uint256",
                    "indexed": false,
                    "internalType": "uint256"
                }
            ],
            "anonymous": false
        },
        {
            "type": "event",
            "name": "Transfer",
            "inputs": [
                {
                    "name": "from",
                    "type": "address",
                    "indexed": true,
                    "internalType": "address"
                },
                {
                    "name": "to",
                    "type": "address",
                    "indexed": true,
                    "internalType": "address"
                },
                {
                    "name": "tokenId",
                    "type": "uint256",
                    "indexed": true,
                    "internalType": "uint256"
                }
            ],
            "anonymous": false
        },
        {
            "type": "error",
            "name": "ERC721IncorrectOwner",
            "inputs": [
                {
                    "name": "sender",
                    "type": "address",
                    "internalType": "address"
                },
                {
                    "name": "tokenId",
                    "type": "uint256",
                    "internalType": "uint256"
                },
                {
                    "name": "owner",
                    "type": "address",
                    "internalType": "address"
                }
            ]
        },
        {
            "type": "error",
            "name": "ERC721InsufficientApproval",
            "inputs": [
                {
                    "name": "operator",
                    "type": "address",
                    "internalType": "address"
                },
                {
                    "name": "tokenId",
                    "type": "uint256",
                    "internalType": "uint256"
                }
            ]
        },
        {
            "type": "error",
            "name": "ERC721InvalidApprover",
            "inputs": [
                {
                    "name": "approver",
                    "type": "address",
                    "internalType": "address"
                }
            ]
        },
        {
            "type": "error",
            "name": "ERC721InvalidOperator",
            "inputs": [
                {
                    "name": "operator",
                    "type": "address",
                    "internalType": "address"
                }
            ]
        },
        {
            "type": "error",
            "name": "ERC721InvalidOwner",
            "inputs": [
                {
                    "name": "owner",
                    "type": "address",
                    "internalType": "address"
                }
            ]
        },
        {
            "type": "error",
            "name": "ERC721InvalidReceiver",
            "inputs": [
                {
                    "name": "receiver",
                    "type": "address",
                    "internalType": "address"
                }
            ]
        },
        {
            "type": "error",
            "name": "ERC721InvalidSender",
            "inputs": [
                {
                    "name": "sender",
                    "type": "address",
                    "internalType": "address"
                }
            ]
        },
        {
            "type": "error",
            "name": "ERC721NonexistentToken",
            "inputs": [
                {
                    "name": "tokenId",
                    "type": "uint256",
                    "internalType": "uint256"
                }
            ]
        },
        {
            "type": "error",
            "name": "OwnableInvalidOwner",
            "inputs": [
                {
                    "name": "owner",
                    "type": "address",
                    "internalType": "address"
                }
            ]
        },
        {
            "type": "error",
            "name": "OwnableUnauthorizedAccount",
            "inputs": [
                {
                    "name": "account",
                    "type": "address",
                    "internalType": "address"
                }
            ]
        },
        {
            "type": "error",
            "name": "ReentrancyGuardReentrantCall",
            "inputs": []
        }
    ],
    "bytecode": {
        "object": "0x60a0604052346100475761001a61001461011b565b906103bf565b61002261004c565b61508061085e8239608051818181610c6f0152818161225e015261270a015261508090f35b610052565b60405190565b5f80fd5b601f801991011690565b634e487b7160e01b5f52604160045260245ffd5b9061007e90610056565b810190811060018060401b0382111761009657604052565b610060565b906100ae6100a761004c565b9283610074565b565b5f80fd5b60018060a01b031690565b6100c8906100b4565b90565b6100d4816100bf565b036100db57565b5f80fd5b905051906100ec826100cb565b565b9190604083820312610116578061010a610113925f86016100df565b936020016100df565b90565b6100b0565b6101396158de8038038061012e8161009b565b9283398101906100ee565b9091565b60018060401b03811161015957610155602091610056565b0190565b610060565b9061017061016b8361013d565b61009b565b918252565b5f7f4c6f74746572795469636b657400000000000000000000000000000000000000910152565b6101a6600d61015e565b906101b360208301610175565b565b6101bd61019c565b90565b5f7f5449434b45540000000000000000000000000000000000000000000000000000910152565b6101f1600661015e565b906101fe602083016101c0565b565b6102086101e7565b90565b90565b90565b61022561022061022a9261020b565b61020e565b6100b4565b90565b61023690610211565b90565b60209181520190565b5f7f496e76616c6964207374616b696e6720746f6b656e2061646472657373000000910152565b610276601d602092610239565b61027f81610242565b0190565b6102989060208101905f818303910152610269565b90565b156102a257565b6102aa61004c565b62461bcd60e51b8152806102c060048201610283565b0390fd5b6102d86102d36102dd926100b4565b61020e565b6100b4565b90565b6102e9906102c4565b90565b6102f5906102e0565b90565b90565b90565b61031261030d610317926102f8565b61020e565b6102fb565b90565b5f1b90565b9061032b5f199161031a565b9181191691161790565b61034961034461034e926102fb565b61020e565b6102fb565b90565b90565b9061036961036461037092610335565b610351565b825461031f565b9055565b5f1c90565b90565b61038861038d91610374565b610379565b90565b61039a905461037c565b90565b6103a6906102fb565b9052565b91906103bd905f6020850194019061039d565b565b906103dd610407926103cf6101b5565b6103d7610200565b9161048f565b610402816103fb6103f56103f05f61022d565b6100bf565b916100bf565b141561029b565b6102ec565b60805261041e61041760016102fe565b6008610354565b610429426009610354565b6104336008610390565b61043d6009610390565b9061047d61046b7f62eeb403dc233a7676f50cdb0fd72dae595aeb7c63039adce5caacc33254f9c092610335565b9261047461004c565b918291826103aa565b0390a2565b61048c60016102fe565b90565b9061049a92916104d0565b6104ac6104a5610482565b6007610354565b565b6104b7906100bf565b9052565b91906104ce905f602085019401906104ae565b565b916104da9161075e565b806104f56104ef6104ea5f61022d565b6100bf565b916100bf565b1461050557610503906107fc565b565b6105286105115f61022d565b5f918291631e4fbdf760e01b8352600483016104bb565b0390fd5b5190565b634e487b7160e01b5f52602260045260245ffd5b9060016002830492168015610564575b602083101461055f57565b610530565b91607f1691610554565b5f5260205f2090565b601f602091010490565b1b90565b919060086105a091029161059a5f1984610581565b92610581565b9181191691161790565b91906105c06105bb6105c893610335565b610351565b908354610585565b9055565b5f90565b6105e2916105dc6105cc565b916105aa565b565b5b8181106105f0575050565b806105fd5f6001936105d0565b016105e5565b9190601f8111610613575b505050565b61061f6106449361056e565b90602061062b84610577565b8301931061064c575b61063d90610577565b01906105e4565b5f808061060e565b915061063d81929050610634565b1c90565b9061066e905f199060080261065a565b191690565b8161067d9161065e565b906002021790565b9061068f8161052c565b9060018060401b03821161074d576106b1826106ab8554610544565b85610603565b602090601f83116001146106e5579180916106d4935f926106d9575b5050610673565b90555b565b90915001515f806106cd565b601f198316916106f48561056e565b925f5b8181106107355750916002939185600196941061071b575b505050020190556106d7565b61072b910151601f84169061065e565b90555f808061070f565b919360206001819287870151815501950192016106f7565b610060565b9061075c91610685565b565b9061076c610773925f610752565b6001610752565b565b60018060a01b031690565b61078c61079191610374565b610775565b90565b61079e9054610780565b90565b906107b260018060a01b039161031a565b9181191691161790565b6107c5906102c4565b90565b6107d1906107bc565b90565b90565b906107ec6107e76107f3926107c8565b6107d4565b82546107a1565b9055565b5f0190565b6108066006610794565b6108118260066107d7565b9061084561083f7f8be0079c531659141344cd1fd0a4f28419497f9722a3daafe3b4186f6b6457e0936107c8565b916107c8565b9161084e61004c565b80610858816107f7565b0390a356fe60806040526004361015610015575b366116c857005b61001f5f356102ce565b806301ffc9a7146102c95780630484a22f146102c457806306fdde03146102bf578063081812fc146102ba578063095ea7b3146102b55780631a95f15f146102b0578063239cd4a4146102ab57806323b872dd146102a657806327ed7188146102a1578063335e536c1461029c57806342842e0e1461029757806348f470ad146102925780634a84c9ee1461028d5780634d2f7f941461028857806350b4471214610283578063608e4dd01461027e5780636352211e146102795780636d2107081461027457806370a082311461026f578063715018a61461026a57806372f702f3146102655780637547c7a31461026057806379b7cf921461025b5780638b3ee76a146102565780638d5103bb146102515780638da5cb5b1461024c578063911614ab1461024757806395d89b4114610242578063a22cb4651461023d578063afbce3b914610238578063b88d4fde14610233578063bab2f5521461022e578063c87b56dd14610229578063cd421fbf14610224578063cf260baf1461021f578063d70981541461021a578063db2e21bc14610215578063e985e9c514610210578063eb18daa31461020b578063ec33d2a014610206578063edca914c14610201578063f2fde38b146101fc5763ff99a0630361000e57611693565b6115d7565b6115ae565b61157b565b611546565b6114d8565b611478565b611445565b61140f565b61134e565b6112e0565b6112ab565b611265565b6110ec565b611035565b610fb0565b610f7b565b610f0f565b610ed9565b610ea4565b610e36565b610d1c565b610ce7565b610c3a565b610c05565b610bd0565b610b9b565b610b68565b610b2f565b6109b0565b610942565b610909565b610888565b610853565b6107e2565b61076f565b610702565b6106cd565b610637565b6105d0565b610538565b610489565b61035a565b60e01c90565b60405190565b5f80fd5b5f80fd5b5f80fd5b63ffffffff60e01b1690565b6102fb816102e6565b0361030257565b5f80fd5b90503590610313826102f2565b565b9060208282031261032e5761032b915f01610306565b90565b6102de565b151590565b61034190610333565b9052565b9190610358905f60208501940190610338565b565b3461038a57610386610375610370366004610315565b6116d0565b61037d6102d4565b91829182610345565b0390f35b6102da565b60018060a01b031690565b6103a39061038f565b90565b6103af8161039a565b036103b657565b5f80fd5b905035906103c7826103a6565b565b906020828203126103e2576103df915f016103ba565b90565b6102de565b5190565b60209181520190565b60200190565b90565b610406906103fa565b9052565b90610417816020936103fd565b0190565b60200190565b9061043e610438610431846103e7565b80936103eb565b926103f4565b905f5b81811061044e5750505090565b909192610467610461600192865161040a565b9461041b565b9101919091610441565b6104869160208201915f818403910152610421565b90565b346104b9576104b56104a461049f3660046103c9565b6117eb565b6104ac6102d4565b91829182610471565b0390f35b6102da565b5f9103126104c857565b6102de565b5190565b60209181520190565b90825f9392825e0152565b601f801991011690565b61050e61051760209361051c93610505816104cd565b938480936104d1565b958691016104da565b6104e5565b0190565b6105359160208201915f8184039101526104ef565b90565b34610568576105483660046104be565b610564610553611926565b61055b6102d4565b91829182610520565b0390f35b6102da565b610576816103fa565b0361057d57565b5f80fd5b9050359061058e8261056d565b565b906020828203126105a9576105a6915f01610581565b90565b6102de565b6105b79061039a565b9052565b91906105ce905f602085019401906105ae565b565b34610600576105fc6105eb6105e6366004610590565b61193f565b6105f36102d4565b918291826105bb565b0390f35b6102da565b919060408382031261062d578061062161062a925f86016103ba565b93602001610581565b90565b6102de565b5f0190565b346106665761065061064a366004610605565b9061195e565b6106586102d4565b8061066281610632565b0390f35b6102da565b90565b90565b61068561068061068a9261066b565b61066e565b6103fa565b90565b61069d662386f26fc10000610671565b90565b6106a861068d565b90565b6106b4906103fa565b9052565b91906106cb905f602085019401906106ab565b565b346106fd576106dd3660046104be565b6106f96106e86106a0565b6106f06102d4565b918291826106b8565b0390f35b6102da565b346107305761071a610715366004610590565b611de6565b6107226102d4565b8061072c81610632565b0390f35b6102da565b909160608284031261076a57610767610750845f85016103ba565b9361075e81602086016103ba565b93604001610581565b90565b6102de565b3461079e57610788610782366004610735565b91611e4b565b6107906102d4565b8061079a81610632565b0390f35b6102da565b90565b6107ba6107b56107bf926107a3565b61066e565b6103fa565b90565b6107d4683635c9adc5dea000006107a6565b90565b6107df6107c2565b90565b34610812576107f23660046104be565b61080e6107fd6107d7565b6108056102d4565b918291826106b8565b0390f35b6102da565b1c90565b90565b61082e9060086108339302610817565b61081b565b90565b90610841915461081e565b90565b61085060095f90610836565b90565b34610883576108633660046104be565b61087f61086e610844565b6108766102d4565b918291826106b8565b0390f35b6102da565b346108b7576108a161089b366004610735565b91611f37565b6108a96102d4565b806108b381610632565b0390f35b6102da565b90959492610907946108f6610900926108ec6080966108e260a088019c5f8901906106ab565b60208701906106ab565b60408501906106ab565b60608301906106ab565b0190610338565b565b3461093d5761093961092461091f366004610590565b611f51565b916109309593956102d4565b958695866108bc565b0390f35b6102da565b346109735761096f61095e610958366004610605565b90611fd8565b6109666102d4565b918291826106b8565b0390f35b6102da565b90565b61098f61098a61099492610978565b61066e565b6103fa565b90565b6109a261032061097b565b90565b6109ad610997565b90565b346109e0576109c03660046104be565b6109dc6109cb6109a5565b6109d36102d4565b918291826106b8565b0390f35b6102da565b6109f96109f46109fe926103fa565b61066e565b6103fa565b90565b90610a0b906109e5565b5f5260205260405f2090565b5f1c90565b610a28610a2d91610a17565b61081b565b90565b610a3a9054610a1c565b90565b60018060a01b031690565b610a54610a5991610a17565b610a3d565b90565b610a669054610a48565b90565b60a01c90565b60ff1690565b610a81610a8691610a69565b610a6f565b90565b610a939054610a75565b90565b610aa190600c610a01565b610aac5f8201610a30565b91610ab960018301610a5c565b91610ac660018201610a89565b91610adf6003610ad860028501610a30565b9301610a30565b90565b90959492610b2d94610b1c610b2692610b12608096610b0860a088019c5f8901906106ab565b60208701906105ae565b6040850190610338565b60608301906106ab565b01906106ab565b565b34610b6357610b5f610b4a610b45366004610590565b610a96565b91610b569593956102d4565b95869586610ae2565b0390f35b6102da565b34610b9657610b80610b7b366004610590565b612351565b610b886102d4565b80610b9281610632565b0390f35b6102da565b34610bcb57610bc7610bb6610bb1366004610590565b61235c565b610bbe6102d4565b918291826105bb565b0390f35b6102da565b34610c0057610be03660046104be565b610bfc610beb612396565b610bf36102d4565b918291826106b8565b0390f35b6102da565b34610c3557610c31610c20610c1b3660046103c9565b6123ee565b610c286102d4565b918291826106b8565b0390f35b6102da565b34610c6857610c4a3660046104be565b610c52612479565b610c5a6102d4565b80610c6481610632565b0390f35b6102da565b7f000000000000000000000000000000000000000000000000000000000000000090565b610ca5610ca0610caa9261038f565b61066e565b61038f565b90565b610cb690610c91565b90565b610cc290610cad565b90565b610cce90610cb9565b9052565b9190610ce5905f60208501940190610cc5565b565b34610d1757610cf73660046104be565b610d13610d02610c6d565b610d0a6102d4565b91829182610cd2565b0390f35b6102da565b34610d4a57610d34610d2f366004610590565b6128c6565b610d3c6102d4565b80610d4681610632565b0390f35b6102da565b9190604083820312610d775780610d6b610d74925f8601610581565b93602001610581565b90565b6102de565b90610d86906109e5565b5f5260205260405f2090565b634e487b7160e01b5f52603260045260245ffd5b5490565b5f5260205f2090565b610dbc81610da6565b821015610dd657610dce600191610daa565b910201905f90565b610d92565b610deb906008610df09302610817565b610a3d565b90565b90610dfe9154610ddb565b90565b610e0c90600e610d7c565b610e1581610da6565b821015610e3257610e2f91610e2991610db3565b90610df3565b90565b5f80fd5b34610e6757610e63610e52610e4c366004610d4f565b90610e01565b610e5a6102d4565b918291826105bb565b0390f35b6102da565b90565b610e83610e7e610e8892610e6c565b61066e565b6103fa565b90565b610e96611388610e6f565b90565b610ea1610e8b565b90565b34610ed457610eb43660046104be565b610ed0610ebf610e99565b610ec76102d4565b918291826106b8565b0390f35b6102da565b34610f0a57610f06610ef5610eef366004610605565b906128d1565b610efd6102d4565b918291826106b8565b0390f35b6102da565b34610f3f57610f1f3660046104be565b610f3b610f2a6128fc565b610f326102d4565b918291826105bb565b0390f35b6102da565b90565b610f5b610f56610f6092610f44565b61066e565b6103fa565b90565b610f6d60c8610f47565b90565b610f78610f63565b90565b34610fab57610f8b3660046104be565b610fa7610f96610f70565b610f9e6102d4565b918291826106b8565b0390f35b6102da565b34610fe057610fc03660046104be565b610fdc610fcb612912565b610fd36102d4565b91829182610520565b0390f35b6102da565b610fee81610333565b03610ff557565b5f80fd5b9050359061100682610fe5565b565b9190604083820312611030578061102461102d925f86016103ba565b93602001610ff9565b90565b6102de565b346110645761104e611048366004611008565b90612928565b6110566102d4565b8061106081610632565b0390f35b6102da565b90611073906109e5565b5f5260205260405f2090565b61108b61109091610a17565b610a6f565b90565b61109d905461107f565b90565b6110ab90600b611069565b6110b65f8201610a30565b916110c360018301610a30565b916110d060028201610a30565b916110e960046110e260038501610a30565b9301611093565b90565b346111205761111c611107611102366004610590565b6110a0565b916111139593956102d4565b958695866108bc565b0390f35b6102da565b5f80fd5b5f80fd5b634e487b7160e01b5f52604160045260245ffd5b9061114b906104e5565b810190811067ffffffffffffffff82111761116557604052565b61112d565b9061117d6111766102d4565b9283611141565b565b67ffffffffffffffff811161119d576111996020916104e5565b0190565b61112d565b90825f939282370152565b909291926111c26111bd8261117f565b61116a565b938185526020850190828401116111de576111dc926111a2565b565b611129565b9080601f83011215611201578160206111fe933591016111ad565b90565b611125565b906080828203126112605761121d815f84016103ba565b9261122b82602085016103ba565b926112398360408301610581565b92606082013567ffffffffffffffff811161125b5761125892016111e3565b90565b6102e2565b6102de565b3461129757611281611278366004611206565b9291909161293e565b6112896102d4565b8061129381610632565b0390f35b6102da565b6112a860085f90610836565b90565b346112db576112bb3660046104be565b6112d76112c661129c565b6112ce6102d4565b918291826106b8565b0390f35b6102da565b346113105761130c6112fb6112f6366004610590565b6129e8565b6113036102d4565b91829182610520565b0390f35b6102da565b90565b61132c61132761133192611315565b61066e565b6103fa565b90565b61134062093a80611318565b90565b61134b611334565b90565b3461137e5761135e3660046104be565b61137a611369611343565b6113716102d4565b918291826106b8565b0390f35b6102da565b61138c90610cad565b90565b9061139990611383565b5f5260205260405f2090565b5490565b5f5260205f2090565b6113bb816113a5565b8210156113d5576113cd6001916113a9565b910201905f90565b610d92565b6113e590600d61138f565b6113ee816113a5565b82101561140b5761140891611402916113b2565b90610836565b90565b5f80fd5b346114405761143c61142b611425366004610605565b906113da565b6114336102d4565b918291826106b8565b0390f35b6102da565b346114735761145d611458366004610590565b612e28565b6114656102d4565b8061146f81610632565b0390f35b6102da565b346114a6576114883660046104be565b611490612f15565b6114986102d4565b806114a281610632565b0390f35b6102da565b91906040838203126114d357806114c76114d0925f86016103ba565b936020016103ba565b90565b6102de565b34611509576115056114f46114ee3660046114ab565b90612f4b565b6114fc6102d4565b91829182610345565b0390f35b6102da565b90565b61152561152061152a9261150e565b61066e565b6103fa565b90565b611538610fa0611511565b90565b61154361152d565b90565b34611576576115563660046104be565b61157261156161153b565b6115696102d4565b918291826106b8565b0390f35b6102da565b346115a95761158b3660046104be565b611593613173565b61159b6102d4565b806115a581610632565b0390f35b6102da565b6115b93660046104be565b6115c16135cf565b6115c96102d4565b806115d381610632565b0390f35b34611605576115ef6115ea3660046103c9565b61363e565b6115f76102d4565b8061160181610632565b0390f35b6102da565b6116139061039a565b9052565b61162090610333565b9052565b9060808061167c9361163c5f8201515f8601906103fd565b61164e6020820151602086019061160a565b61166060408201516040860190611617565b611672606082015160608601906103fd565b01519101906103fd565b565b9190611691905f60a08501940190611624565b565b346116c3576116bf6116ae6116a9366004610590565b613744565b6116b66102d4565b9182918261167e565b0390f35b6102da565b5f80fd5b5f90565b6116d86116cc565b50806116f36116ed6380ac58cd60e01b6102e6565b916102e6565b148015611717575b908115611707575b5090565b6117119150613763565b5f611703565b508061173261172c635b5e139f60e01b6102e6565b916102e6565b146116fb565b606090565b60209181520190565b6117509054610a1c565b90565b60010190565b90611776611770611769846113a5565b809361173d565b926113a9565b905f5b8181106117865750505090565b9091926117a66117a060019261179b87611746565b61040a565b94611753565b9101919091611779565b906117ba91611759565b90565b906117dd6117d6926117cd6102d4565b938480926117b0565b0383611141565b565b6117e8906117bd565b90565b611802611807916117fa611738565b50600d61138f565b6117df565b90565b606090565b634e487b7160e01b5f52602260045260245ffd5b9060016002830492168015611843575b602083101461183e57565b61180f565b91607f1691611833565b60209181520190565b5f5260205f2090565b905f929180549061187961187283611823565b809461184d565b916001811690815f146118d05750600114611894575b505050565b6118a19192939450611856565b915f925b8184106118b857505001905f808061188f565b600181602092959395548486015201910192906118a5565b92949550505060ff19168252151560200201905f808061188f565b906118f59161185f565b90565b90611918611911926119086102d4565b938480926118eb565b0383611141565b565b611923906118f8565b90565b61192e61180a565b506119385f61191a565b90565b5f90565b61195b9061194b61193b565b5061195581613789565b506137f5565b90565b90611972919061196c613814565b91613821565b565b5f7f4379636c65206e6f7420656e6465640000000000000000000000000000000000910152565b6119a8600f6020926104d1565b6119b181611974565b0190565b6119ca9060208101905f81830391015261199b565b90565b156119d457565b6119dc6102d4565b62461bcd60e51b8152806119f2600482016119b5565b0390fd5b611a2490611a1f81611a19611a13611a0e6008610a30565b6103fa565b916103fa565b106119cd565b611a26565b565b611a3790611a3261385d565b611ce9565b611a3f6138e1565b565b90565b5f7f4379636c65206e6f742066696e616c697a656400000000000000000000000000910152565b611a7860136020926104d1565b611a8181611a44565b0190565b611a9a9060208101905f818303910152611a6b565b90565b15611aa457565b611aac6102d4565b62461bcd60e51b815280611ac260048201611a85565b0390fd5b90611ad090611383565b5f5260205260405f2090565b90565b611af3611aee611af892611adc565b61066e565b6103fa565b90565b5f7f4e6f207265776172647320746f20636c61696d00000000000000000000000000910152565b611b2f60136020926104d1565b611b3881611afb565b0190565b611b519060208101905f818303910152611b22565b90565b15611b5b57565b611b636102d4565b62461bcd60e51b815280611b7960048201611b3c565b0390fd5b5f1b90565b90611b8e5f1991611b7d565b9181191691161790565b90565b90611bb0611bab611bb7926109e5565b611b98565b8254611b82565b9055565b611bc490610c91565b90565b611bd090611bbb565b90565b611bdc90610cad565b90565b905090565b611bef5f8092611bdf565b0190565b611bfc90611be4565b90565b90611c11611c0c8361117f565b61116a565b918252565b606090565b3d5f14611c3657611c2b3d611bff565b903d5f602084013e5b565b611c3e611c16565b90611c34565b5f7f526577617264207472616e73666572206661696c656400000000000000000000910152565b611c7860166020926104d1565b611c8181611c44565b0190565b611c9a9060208101905f818303910152611c6b565b90565b15611ca457565b611cac6102d4565b62461bcd60e51b815280611cc260048201611c85565b0390fd5b916020611ce7929493611ce060408201965f8301906106ab565b01906106ab565b565b611cfd611cf8600b8390611069565b611a41565b611d11611d0c60048301611093565b611a9d565b611d63611d2a611d25600684013390611ac6565b610a30565b91611d4783611d41611d3b5f611adf565b916103fa565b11611b54565b611d5e6006611d555f611adf565b92013390611ac6565b611b9b565b611d9f5f80611d79611d7433611bc7565b611bd3565b84611d826102d4565b9081611d8d81611bf3565b03925af1611d99611c1b565b50611c9d565b339091611dcc7fd6ab86e55e7211dddcda4c7c65e9e1c75f06b5da6b05222f8cd39b93986fecad92611383565b92611de1611dd86102d4565b92839283611cc6565b0390a2565b611def906119f6565b565b611e05611e00611e0a92611adc565b61066e565b61038f565b90565b611e1690611df1565b90565b604090611e42611e499496959396611e3860608401985f8501906105ae565b60208301906106ab565b01906105ae565b565b919080611e68611e62611e5d5f611e0d565b61039a565b9161039a565b14611ebf57611e809082611e7a613814565b91613911565b9182611e94611e8e8361039a565b9161039a565b03611e9e57505050565b611ebb9091925f9384936364283d7b60e01b855260048501611e19565b0390fd5b611ee2611ecb5f611e0d565b5f918291633250574960e11b8352600483016105bb565b0390fd5b67ffffffffffffffff8111611f0457611f006020916104e5565b0190565b61112d565b90611f1b611f1683611ee6565b61116a565b918252565b611f295f611f09565b90565b611f34611f20565b90565b91611f4b9291611f45611f2c565b9261293e565b565b5f90565b611f8c611f9191611f60611f4d565b50611f69611f4d565b50611f72611f4d565b50611f7b611f4d565b50611f846116cc565b50600b611069565b611a41565b90611f9d5f8301610a30565b91611faa60018201610a30565b92611fb760028301610a30565b92611fd06004611fc960038601610a30565b9401611093565b919493929190565b611ffb906005611ff561200094611fed611f4d565b50600b611069565b01611ac6565b610a30565b90565b6120149061200f61385d565b6121c1565b61201c6138e1565b565b5f7f496e73756666696369656e74207374616b656420616d6f756e74000000000000910152565b612052601a6020926104d1565b61205b8161201e565b0190565b6120749060208101905f818303910152612045565b90565b1561207e57565b6120866102d4565b62461bcd60e51b81528061209c6004820161205f565b0390fd5b634e487b7160e01b5f52601160045260245ffd5b6120c36120c9919392936103fa565b926103fa565b82039182116120d457565b6120a0565b60e01b90565b905051906120ec82610fe5565b565b9060208282031261210757612104915f016120df565b90565b6102de565b91602061212d92949361212660408201965f8301906105ae565b01906106ab565b565b6121376102d4565b3d5f823e3d90fd5b5f7f5472616e73666572206661696c65640000000000000000000000000000000000910152565b612173600f6020926104d1565b61217c8161213f565b0190565b6121959060208101905f818303910152612166565b90565b1561219f57565b6121a76102d4565b62461bcd60e51b8152806121bd60048201612180565b0390fd5b6122596121e16121dc600b6121d66008610a30565b90611069565b611a41565b6122136121fa6121f5600584013390611ac6565b610a30565b61220c612206866103fa565b916103fa565b1015612077565b61223d83612237612228600585013390611ac6565b9161223283610a30565b6120b4565b90611b9b565b6122535f8492019161224e83610a30565b6120b4565b90611b9b565b6122827f0000000000000000000000000000000000000000000000000000000000000000610cb9565b602063a9059cbb9133906122a95f86956122b461229d6102d4565b978896879586946120d9565b84526004840161210c565b03925af1801561234c576122cf915f9161231e575b50612198565b336122da6008610a30565b6123047f6f2d3e000c89d37446b7c0374c0125068ff316d1e3ee302336478a8cd03c233692611383565b926123196123106102d4565b92839283611cc6565b0390a2565b61233f915060203d8111612345575b6123378183611141565b8101906120ee565b5f6122c9565b503d61232d565b61212f565b61235a90612003565b565b61236e9061236861193b565b50613789565b90565b612380612386919392936103fa565b926103fa565b820180921161239157565b6120a0565b61239e611f4d565b506123ba6123ac6009610a30565b6123b4611334565b90612371565b426123cd6123c7836103fa565b916103fa565b10156123e1576123de9042906120b4565b90565b506123eb5f611adf565b90565b6123f6611f4d565b508061241261240c6124075f611e0d565b61039a565b9161039a565b1461242d5761242561242a916003611ac6565b610a30565b90565b6124506124395f611e0d565b5f9182916322718ad960e21b8352600483016105bb565b0390fd5b61245c613a92565b612464612466565b565b6124776124725f611e0d565b613ae0565b565b612481612454565b565b5f7f4379636c6520656e646564000000000000000000000000000000000000000000910152565b6124b7600b6020926104d1565b6124c081612483565b0190565b6124d99060208101905f8183039101526124aa565b90565b156124e357565b6124eb6102d4565b62461bcd60e51b815280612501600482016124c4565b0390fd5b6125449061253f4261253961253361252e6125206009610a30565b612528611334565b90612371565b6103fa565b916103fa565b106124dc565b612546565b565b6125579061255261385d565b6126e1565b61255f6138e1565b565b5f7f496e73756666696369656e74207374616b6520616d6f756e7400000000000000910152565b61259560196020926104d1565b61259e81612561565b0190565b6125b79060208101905f818303910152612588565b90565b156125c157565b6125c96102d4565b62461bcd60e51b8152806125df600482016125a2565b0390fd5b6125ec90610cad565b90565b60409061261861261f949695939661260e60608401985f8501906105ae565b60208301906105ae565b01906106ab565b565b90565b5f5260205f2090565b5490565b61263a8161262d565b8210156126545761264c600191612624565b910201905f90565b610d92565b1b90565b9190600861267d91029161267760018060a01b0384612659565b92612659565b9181191691161790565b90565b91906126a061269b6126a893611383565b612687565b90835461265d565b9055565b90815491680100000000000000008310156126dc57826126d49160016126da95018155612631565b9061268a565b565b61112d565b612705816126fe6126f86126f36107c2565b6103fa565b916103fa565b10156125ba565b61272e7f0000000000000000000000000000000000000000000000000000000000000000610cb9565b60206323b872dd91339061275e5f612745306125e3565b95612769886127526102d4565b988997889687956120d9565b8552600485016125ef565b03925af180156128c157612784915f91612893575b50612198565b6128186127a461279f600b6127996008610a30565b90611069565b611a41565b6127ba6127b5600583013390611ac6565b610a30565b6127cc6127c65f611adf565b916103fa565b14612867575b6127fc836127f66127e7600585013390611ac6565b916127f183610a30565b612371565b90611b9b565b6128125f8492019161280d83610a30565b612371565b90611b9b565b336128236008610a30565b61284d7fdd2a19c3bdd089cbe77c04f5655f83de0504d6140d12c8667646f55d0557c4dc92611383565b926128626128596102d4565b92839283611cc6565b0390a2565b61288e612887612882600e61287c6008610a30565b90610d7c565b612621565b33906126ac565b6127d2565b6128b4915060203d81116128ba575b6128ac8183611141565b8101906120ee565b5f61277e565b503d6128a2565b61212f565b6128cf90612505565b565b6128f49060066128ee6128f9946128e6611f4d565b50600b611069565b01611ac6565b610a30565b90565b61290461193b565b5061290f6006610a5c565b90565b61291a61180a565b50612925600161191a565b90565b61293c91612934613814565b919091613b41565b565b91612962939161295084828491611e4b565b612958613814565b9390919293613cc0565b565b90565b5190565b612973611f20565b90565b905090565b6129a06129979260209261298e816104cd565b94858093612976565b938491016104da565b0190565b6129b2906129b8939261297b565b9061297b565b90565b6129da92916129e6916129cc6102d4565b9485926020840192836129a4565b90810382520383611141565b565b6129f061180a565b506129fa81613789565b50612a03613e14565b90612a15612a1083612964565b612967565b612a27612a215f611adf565b916103fa565b115f14612a4557612a3b612a419291613eb8565b906129bb565b5b90565b5050612a4f61296b565b612a42565b612a6590612a6061385d565b612cc8565b612a6d6138e1565b565b5f7f4e6f7420746f6b656e206f776e65720000000000000000000000000000000000910152565b612aa3600f6020926104d1565b612aac81612a6f565b0190565b612ac59060208101905f818303910152612a96565b90565b15612acf57565b612ad76102d4565b62461bcd60e51b815280612aed60048201612ab0565b0390fd5b90565b5f7f5072697a6520616c726561647920636c61696d65640000000000000000000000910152565b612b2860156020926104d1565b612b3181612af4565b0190565b612b4a9060208101905f818303910152612b1b565b90565b15612b5457565b612b5c6102d4565b62461bcd60e51b815280612b7260048201612b35565b0390fd5b5f7f4e6f207072697a6520746f20636c61696d000000000000000000000000000000910152565b612baa60116020926104d1565b612bb381612b76565b0190565b612bcc9060208101905f818303910152612b9d565b90565b15612bd657565b612bde6102d4565b62461bcd60e51b815280612bf460048201612bb7565b0390fd5b60a01b90565b90612c0d60ff60a01b91612bf8565b9181191691161790565b612c2090610333565b90565b90565b90612c3b612c36612c4292612c17565b612c23565b8254612bfe565b9055565b5f7f5072697a65207472616e73666572206661696c65640000000000000000000000910152565b612c7a60156020926104d1565b612c8381612c46565b0190565b612c9c9060208101905f818303910152612c6d565b90565b15612ca657565b612cae6102d4565b62461bcd60e51b815280612cc460048201612c87565b0390fd5b612cec612cd48261235c565b612ce6612ce03361039a565b9161039a565b14612ac8565b612d00612cfb600c8390610a01565b612af1565b90612d1e612d19612d1360018501610a89565b15610333565b612b4d565b612d45612d2d60028401610a30565b612d3f612d395f611adf565b916103fa565b11612bcf565b612d6e612d696004612d63600b612d5d5f8801610a30565b90611069565b01611093565b611a9d565b612d7b6001808401612c26565b612dc25f80612d91612d8c33611bc7565b611bd3565b612d9d60038701610a30565b612da56102d4565b9081612db081611bf3565b03925af1612dbc611c1b565b50612c9f565b33612ddb6002612dd460038601610a30565b9401610a30565b612e0e612e087f701a77bd5e0b7b1ffffe478c3c19e3caadca855782127fca812c7ccd9646cdc493611383565b936109e5565b93612e23612e1a6102d4565b92839283611cc6565b0390a3565b612e3190612a54565b565b612e3b613a92565b612e43612ec7565b565b5f7f456d657267656e6379207769746864726177206661696c656400000000000000910152565b612e7960196020926104d1565b612e8281612e45565b0190565b612e9b9060208101905f818303910152612e6c565b90565b15612ea557565b612ead6102d4565b62461bcd60e51b815280612ec360048201612e86565b0390fd5b612f135f80612ee4612edf612eda6128fc565b611bc7565b611bd3565b612eed306125e3565b31612ef66102d4565b9081612f0181611bf3565b03925af1612f0d611c1b565b50612e9e565b565b612f1d612e33565b565b90612f2990611383565b5f5260205260405f2090565b90612f3f90611383565b5f5260205260405f2090565b612f7091612f66612f6b92612f5e6116cc565b506005612f1f565b612f35565b611093565b90565b612f7b613a92565b612f83613059565b565b5f7f4379636c6520616c72656164792066696e616c697a6564000000000000000000910152565b612fb960176020926104d1565b612fc281612f85565b0190565b612fdb9060208101905f818303910152612fac565b90565b15612fe557565b612fed6102d4565b62461bcd60e51b81528061300360048201612fc6565b0390fd5b9061301360ff91611b7d565b9181191691161790565b9061303261302d61303992612c17565b612c23565b8254613007565b9055565b613046906103fa565b5f1981146130545760010190565b6120a0565b6130904261308961308361307e6130706009610a30565b613078611334565b90612371565b6103fa565b916103fa565b10156119cd565b6130c16130bc6130b660046130b0600b6130aa6008610a30565b90611069565b01611093565b15610333565b612fde565b6130c9614050565b6130d1614626565b6130f3600160046130ed600b6130e76008610a30565b90611069565b0161301d565b61310f6131086131036008610a30565b61303d565b6008611b9b565b61311a426009611b9b565b6131246008610a30565b61312e6009610a30565b9061316e61315c7f62eeb403dc233a7676f50cdb0fd72dae595aeb7c63039adce5caacc33254f9c0926109e5565b926131656102d4565b918291826106b8565b0390a2565b61317b612f73565b565b6131b3426131ad6131a76131a26131946009610a30565b61319c611334565b90612371565b6103fa565b916103fa565b106124dc565b6131bb6131bd565b565b6131c561385d565b6131cd613430565b6131d56138e1565b565b5f7f496e636f7272656374207469636b657420707269636500000000000000000000910152565b61320b60166020926104d1565b613214816131d7565b0190565b61322d9060208101905f8183039101526131fe565b90565b1561323757565b61323f6102d4565b62461bcd60e51b81528061325560048201613218565b0390fd5b61326360a061116a565b90565b90613270906103fa565b9052565b9061327e9061039a565b9052565b9061328c90610333565b9052565b61329a90516103fa565b90565b6132a7905161039a565b90565b906132bb60018060a01b0391611b7d565b9181191691161790565b906132da6132d56132e192611383565b612687565b82546132aa565b9055565b6132ef9051610333565b90565b906133686080600361336e946133155f820161330f5f8801613290565b90611b9b565b61332e600182016133286020880161329d565b906132c5565b61334760018201613341604088016132e5565b90612c26565b6133606002820161335a60608801613290565b90611b9b565b019201613290565b90611b9b565b565b9061337a916132f2565b565b90565b5f5260205f2090565b5490565b61339581613388565b8210156133af576133a760019161337f565b910201905f90565b610d92565b919060086133cf9102916133c95f1984612659565b92612659565b9181191691161790565b91906133ef6133ea6133f7936109e5565b611b98565b9083546133b4565b9055565b908154916801000000000000000083101561342b57826134239160016134299501815561338c565b906133d9565b565b61112d565b6134533461344d61344761344261068d565b6103fa565b916103fa565b14613230565b61346f613468613463600a610a30565b61303d565b600a611b9b565b613479600a610a30565b61348433829061477e565b6134fc6134916008610a30565b6134eb6134e2336134dd6134d45f6134cf5f916134c65f966134bd6134b4613259565b9b5f8d01613266565b60208b01613274565b60408901613282565b611adf565b60608601613266565b611adf565b60808301613266565b6134f7600c8490610a01565b613370565b61351a61351361350e600d339061138f565b61337c565b82906133fb565b61357561353a613535600b61352f6008610a30565b90611069565b611a41565b6135586001820161355261354d82610a30565b61303d565b90611b9b565b61356f60023492019161356a83610a30565b612371565b90611b9b565b33906135816008610a30565b916135ca6135b86135b27fcbea9c23945e351434f7ae5b1a435091cc278dd9dd0eba4c04203674014ca7d793611383565b936109e5565b936135c16102d4565b918291826106b8565b0390a3565b6135d761317d565b565b6135ea906135e5613a92565b6135ec565b565b806136076136016135fc5f611e0d565b61039a565b9161039a565b146136175761361590613ae0565b565b61363a6136235f611e0d565b5f918291631e4fbdf760e01b8352600483016105bb565b0390fd5b613647906135d9565b565b61365360a061116a565b90565b5f90565b5f90565b5f90565b61366a613649565b906020808080808661367a613656565b81520161368561365a565b81520161369061365e565b81520161369b613656565b8152016136a6613656565b81525050565b6136b4613662565b90565b9061373661372d60036136c8613649565b946136df6136d75f8301610a30565b5f8801613266565b6136f76136ee60018301610a5c565b60208801613274565b61370f61370660018301610a89565b60408801613282565b61372761371e60028301610a30565b60608801613266565b01610a30565b60808401613266565b565b613741906136b7565b90565b61375b613760916137536136ac565b50600c610a01565b613738565b90565b61376b6116cc565b5061378561377f6301ffc9a760e01b6102e6565b916102e6565b1490565b61379161193b565b5061379b81614822565b90816137b76137b16137ac5f611e0d565b61039a565b9161039a565b146137c0575090565b6137db905f918291637e27328960e01b8352600483016106b8565b0390fd5b906137e9906109e5565b5f5260205260405f2090565b61380c6138119161380461193b565b5060046137df565b610a5c565b90565b61381c61193b565b503390565b9161382f9291600192614841565b565b90565b61384861384361384d92613831565b61066e565b6103fa565b90565b61385a6002613834565b90565b6138676007610a30565b61388061387a613875613850565b6103fa565b916103fa565b1461389957613897613890613850565b6007611b9b565b565b5f633ee5aeb560e01b8152806138b160048201610632565b0390fd5b90565b6138cc6138c76138d1926138b5565b61066e565b6103fa565b90565b6138de60016138b8565b90565b6138f36138ec6138d4565b6007611b9b565b565b9061390091036103fa565b90565b9061390e91016103fa565b90565b9061391a61193b565b5061392481614822565b928061394061393a6139355f611e0d565b61039a565b9161039a565b03613a7f575b508261396261395c6139575f611e0d565b61039a565b9161039a565b03613a2b575b8161398361397d6139785f611e0d565b61039a565b9161039a565b036139f5575b61399e82613999600284906137df565b6132c5565b82916139dc6139d66139d07fddf252ad1be2c89b69c2b068fc378daa952ba7f163c4a11628f55a4df523b3ef95611383565b92611383565b926109e5565b926139e56102d4565b806139ef81610632565b0390a490565b613a26613a0260016138b8565b613a20613a1160038690611ac6565b91613a1b83610a30565b613903565b90611b9b565b613989565b613a49613a375f611e0d565b82613a415f611e0d565b905f92614841565b613a7a613a5660016138b8565b613a74613a6560038790611ac6565b91613a6f83610a30565b6138f5565b90611b9b565b613968565b613a8c908490839161498b565b5f613946565b613a9a6128fc565b613ab3613aad613aa8613814565b61039a565b9161039a565b03613aba57565b613adc613ac5613814565b5f91829163118cdaa760e01b8352600483016105bb565b0390fd5b613aea6006610a5c565b613af58260066132c5565b90613b29613b237f8be0079c531659141344cd1fd0a4f28419497f9722a3daafe3b4186f6b6457e093611383565b91611383565b91613b326102d4565b80613b3c81610632565b0390a3565b91909182613b5f613b59613b545f611e0d565b61039a565b9161039a565b14613bd357613b8382613b7e613b7760058590612f1f565b8690612f35565b61301d565b919091613bce613bbc613bb67f17307eab39ab6107e8899845ad3d59bd9653f200f220920489ca2b5937696c3193611383565b93611383565b93613bc56102d4565b91829182610345565b0390a3565b613bee835f918291630b61174360e31b8352600483016105bb565b0390fd5b613bfb90610c91565b90565b613c0790613bf2565b90565b613c1390610cad565b90565b90505190613c23826102f2565b565b90602082820312613c3e57613c3b915f01613c16565b90565b6102de565b60209181520190565b613c6b613c74602093613c7993613c6281612967565b93848093613c43565b958691016104da565b6104e5565b0190565b9092613cb090613ca6613cbd9694613c9c60808601975f8701906105ae565b60208501906105ae565b60408301906106ab565b6060818403910152613c4c565b90565b9193843b613cd6613cd05f611adf565b916103fa565b11613ce3575b5050505050565b613d1b5f602094613d26613cfe613cf98a613bfe565b613c0a565b9463150b7a02929698613d0f6102d4565b998a98899788966120d9565b865260048601613c7d565b03925af180915f92613de4575b50155f14613da157506001613d4e57505b5f80808080613cdc565b613d56611c1b565b90613d6082612967565b613d72613d6c5f611adf565b916103fa565b145f14613d9857613d94905f918291633250574960e11b8352600483016105bb565b0390fd5b50602081519101fd5b613dba613db4630a85bd0160e11b6102e6565b916102e6565b03613dc55750613d44565b613de0905f918291633250574960e11b8352600483016105bb565b0390fd5b613e0691925060203d8111613e0d575b613dfe8183611141565b810190613c25565b905f613d33565b503d613df4565b613e1c61180a565b50613e2561296b565b90565b369037565b90613e52613e3a83611f09565b92602080613e488693611ee6565b9201910390613e28565b565b6001613e6091036103fa565b90565b90565b613e7a613e75613e7f92613e63565b61066e565b6103fa565b90565b634e487b7160e01b5f52601260045260245ffd5b613ea2613ea8916103fa565b916103fa565b908115613eb3570490565b613e82565b613ec061180a565b50613edd613ecd82614b1e565b613ed760016138b8565b90613903565b90613ee782613e2d565b91613ef0611f4d565b5060208301015b600115613f5a57613f0a613f3691613e54565b916f181899199a1a9b1b9c1cb0b131b232b360811b600a82061a8353613f30600a613e66565b90613e96565b80613f49613f435f611adf565b916103fa565b14613f545790613ef7565b50505b90565b5050613f57565b613f70613f76919392936103fa565b926103fa565b91613f828382026103fa565b928184041490151715613f9157565b6120a0565b90565b613fad613fa8613fb292613f96565b61066e565b6103fa565b90565b613fc1613fc7916103fa565b916103fa565b908115613fd2570490565b613e82565b90565b613fee613fe9613ff392613fd7565b61066e565b6103fa565b90565b90565b61400d61400861401292613ff6565b61066e565b6103fa565b90565b61401e906103fa565b5f811461402c576001900390565b6120a0565b90565b61404861404361404d92614031565b61066e565b6103fa565b90565b61406d614068600b6140626008610a30565b90611069565b611a41565b61407960018201610a30565b8061408c6140865f611adf565b916103fa565b14614530576140f26140a060028401610a30565b9260036140eb6140e36140d26140cc6140bb60028701610a30565b6140c65f8801610a30565b90614dbd565b88613f61565b6140dd612710613f99565b90613fb5565b9586906120b4565b9101611b9b565b61411861410782614101610e8b565b90613f61565b614112612710613f99565b90613fb5565b9161413c61412e84614128610f63565b90613f61565b614136610e8b565b90613fb5565b9161417561416e61416661415887614152610997565b90613f61565b614160610e8b565b90613fb5565b9585906120b4565b85906120b4565b93836141896141835f611adf565b916103fa565b115f14614522576141c36141a8846141a2611388610e6f565b90613f61565b6141bd6127106141b88891613f99565b613f61565b90613fb5565b5b90806141d86141d25f611adf565b916103fa565b115f14614514576142126141f7856141f1610bb8613fda565b90613f61565b61420c6127106142078591613f99565b613f61565b90613fb5565b5b93866142276142215f611adf565b916103fa565b115f1461450257614246614261916142406107d0613ff9565b90613f61565b61425b6127106142568a91613f99565b613f61565b90613fb5565b9493945b9461426f5f611adf565b9561427a60016138b8565b955b8661428f614289886103fa565b916103fa565b116144ab576142b26142ab6142a4600a610a30565b88906120b4565b8890612371565b6142bd818890614f3d565b806142d76142d16142cc610f63565b6103fa565b916103fa565b1080614491575b5f14614341575061432d61433a92614328614333936143146143006003614034565b600261430e600c8590610a01565b01611b9b565b60036143228b92600c610a01565b01611b9b565b614015565b9861303d565b965b61303d565b959661427c565b809995929961437061436a614365614357610f63565b61435f610997565b90612371565b6103fa565b916103fa565b1080614477575b5f146143d357506143c661433a926143c16143cc936143ad6143996002613834565b60026143a7600c8590610a01565b01611b9b565b60036143bb8992600c610a01565b01611b9b565b614015565b9461303d565b965b614335565b979194976143f06143ea6143e5610e8b565b6103fa565b916103fa565b108061445d575b614406575b5061433a906143ce565b61445061433a92989a61444b6144569361443761442360016138b8565b6002614431600c8590610a01565b01611b9b565b60036144458892600c610a01565b01611b9b565b614015565b9961303d565b96906143fc565b508961447161446b5f611adf565b916103fa565b116143f7565b508261448b6144855f611adf565b916103fa565b11614377565b50826144a561449f5f611adf565b916103fa565b116142de565b5050505050505090506144be6008610a30565b6144fd6144eb7f3e370f57c58a8461911bbc70fba944c199c88f3e82222fa8687856fc9a9853ec926109e5565b926144f46102d4565b918291826106b8565b0390a2565b5061450c5f611adf565b949394614265565b61451d5f611adf565b614213565b61452b5f611adf565b6141c4565b5050565b60209181520190565b9061454a8160209361160a565b0190565b6145589054610a48565b90565b60010190565b9061457e61457861457184610da6565b8093614534565b92610daa565b905f5b81811061458e5750505090565b9091926145ae6145a86001926145a38761454e565b61453d565b9461455b565b9101919091614581565b906145c291614561565b90565b906145e56145de926145d56102d4565b938480926145b8565b0383611141565b565b6145f0906145c5565b90565b60016145ff91016103fa565b90565b5190565b9061461082614602565b811015614621576020809102010190565b610d92565b61464361463e600b6146386008610a30565b90611069565b611a41565b9061466161465c600e6146566008610a30565b90610d7c565b6145e7565b9161466d5f8201610a30565b61467f6146795f611adf565b916103fa565b148015614759575b614754576146945f611adf565b5b806146b06146aa6146a587614602565b6103fa565b916103fa565b101561474e57614704906146cd6146c8868390614606565b61329d565b6146e36146de600586018390611ac6565b610a30565b90816146f76146f15f611adf565b916103fa565b11614709575b50506145f3565b614695565b6147426147386147276147479461472260038a01610a30565b613f61565b6147325f8901610a30565b90613fb5565b9160068701611ac6565b611b9b565b5f806146fd565b50509050565b509050565b5061476660038201610a30565b6147786147725f611adf565b916103fa565b14614687565b908161479a61479461478f5f611e0d565b61039a565b9161039a565b146147fb576147b391906147ad5f611e0d565b91613911565b6147cd6147c76147c25f611e0d565b61039a565b9161039a565b036147d457565b6147f76147e05f611e0d565b5f9182916339e3563760e11b8352600483016105bb565b0390fd5b61481e6148075f611e0d565b5f918291633250574960e11b8352600483016105bb565b0390fd5b61483961483e9161483161193b565b5060026137df565b610a5c565b90565b919092808015614968575b61486a575b505090614863614868929160046137df565b6132c5565b565b61487384613789565b918061488f6148896148845f611e0d565b61039a565b9161039a565b14158061494d575b80614933575b6149145750916148639161486894936148b9575b509192614851565b8184906148f86148f26148ec7f8c5be1e5ebec7d5bd14f71427d1e84f3dd0314c0f7b2291e5b200ac8c7c3b92595611383565b92611383565b926109e5565b926149016102d4565b8061490b81610632565b0390a45f6148b1565b61492f905f91829163a9fbf51f60e01b8352600483016105bb565b0390fd5b50614948614942848390612f4b565b15610333565b61489d565b508261496161495b8361039a565b9161039a565b1415614897565b508161498461497e6149795f611e0d565b61039a565b9161039a565b141561484c565b6149a061499a82848691614faa565b15610333565b6149a957505050565b6149c36149bd6149b85f611e0d565b61039a565b9161039a565b145f146149e9576149e5825f918291637e27328960e01b8352600483016106b8565b0390fd5b614a035f92839263177e802f60e01b84526004840161210c565b0390fd5b90565b614a1e614a19614a2392614a07565b61066e565b6103fa565b90565b90565b614a3d614a38614a4292614a26565b61066e565b6103fa565b90565b90565b614a5c614a57614a6192614a45565b61066e565b6103fa565b90565b90565b614a7b614a76614a8092614a64565b61066e565b6103fa565b90565b90565b614a9a614a95614a9f92614a83565b61066e565b6103fa565b90565b90565b614ab9614ab4614abe92614aa2565b61066e565b6103fa565b90565b90565b614ad8614ad3614add92614ac1565b61066e565b6103fa565b90565b90565b614af7614af2614afc92614ae0565b61066e565b6103fa565b90565b90565b614b16614b11614b1b92614aff565b61066e565b6103fa565b90565b614b26611f4d565b50614b305f611adf565b9080614b5f614b597a184f03e93ff9f4daa797ed6e38ed64bf6a1f010000000000000000614a0a565b916103fa565b1015614d37575b80614b87614b816d04ee2d6d415b85acef8100000000614a48565b916103fa565b1015614cfc575b80614ba8614ba2662386f26fc10000610671565b916103fa565b1015614cc8575b80614bc6614bc06305f5e100614aa5565b916103fa565b1015614c97575b80614be2614bdc612710613f99565b916103fa565b1015614c68575b80614bfd614bf76064614b02565b916103fa565b1015614c3a575b614c17614c11600a613e66565b916103fa565b1015614c21575b90565b614c3590614c2f60016138b8565b90613903565b614c1e565b614c51614c6291614c4b6064614b02565b90613e96565b91614c5c6002613834565b90613903565b90614c04565b614c80614c9191614c7a612710613f99565b90613e96565b91614c8b6004614ae3565b90613903565b90614be9565b614cb1614cc291614cab6305f5e100614aa5565b90613e96565b91614cbc6008614ac4565b90613903565b90614bcd565b614ce5614cf691614cdf662386f26fc10000610671565b90613e96565b91614cf06010614a86565b90613903565b90614baf565b614d20614d3191614d1a6d04ee2d6d415b85acef8100000000614a48565b90613e96565b91614d2b6020614a67565b90613903565b90614b8e565b614d68614d7991614d627a184f03e93ff9f4daa797ed6e38ed64bf6a1f010000000000000000614a0a565b90613e96565b91614d736040614a29565b90613903565b90614b66565b90565b614d96614d91614d9b92614d7f565b61066e565b6103fa565b90565b90565b614db5614db0614dba92614d9e565b61066e565b6103fa565b90565b90614dc6611f4d565b5080614dda614dd45f611adf565b916103fa565b14614e6057614df7614dfc92614df1612710613f99565b90613f61565b613fb5565b80614e11614e0b612710613f99565b916103fa565b10155f14614e285750614e25611b58614da1565b90565b614e3c614e36611388610e6f565b916103fa565b10155f14614e5257614e4f611770614d82565b90565b614e5d610fa0611511565b90565b5050614e6d611388610e6f565b90565b90565b614e7f614e84916103fa565b614e70565b9052565b60601b90565b614e9790614e88565b90565b614ea390614e8e565b90565b614eb2614eb79161039a565b614e9a565b9052565b6020614efd94614eed828096614ee58287614edd614ef59960149f9e9b614e73565b018092614e73565b018092614e73565b018092614e73565b018092614ea6565b0190565b60200190565b614f13614f1891610a17565b6109e5565b90565b614f27614f2d916103fa565b916103fa565b908115614f38570690565b613e82565b614f9690614f7e614fa793614f50611f4d565b50614f6f42914494903391614f636102d4565b96879560208701614ebb565b60208201810382520382611141565b614f90614f8a82612967565b91614f01565b20614f07565b614fa1612710613f99565b90614f1b565b90565b9190614fb46116cc565b5080614fd0614fca614fc55f611e0d565b61039a565b9161039a565b14159283614fdf575b50505090565b8091929350614ff6614ff08461039a565b9161039a565b14908115615038575b50918215615012575b50505f8080614fd9565b61503091925061502461502a916137f5565b9261039a565b9161039a565b145f80615008565b61504491508290612f4b565b5f614fff56fea2646970667358221220cc97a2e0ddba6a88ccda6b7c171048001b5ed2a7606a586447c7762651ac550d64736f6c634300081e0033",
        "linkReferences": {}
    },
    "methodIdentifiers": {
        "BIG_PRIZE_RATE()": "911614ab",
        "CYCLE_DURATION()": "cd421fbf",
        "MEDIUM_PRIZE_RATE()": "4d2f7f94",
        "MIN_STAKE_AMOUNT()": "27ed7188",
        "SMALL_PRIZE_RATE()": "eb18daa3",
        "TICKET_PRICE()": "1a95f15f",
        "TOTAL_WIN_RATE()": "8b3ee76a",
        "approve(address,uint256)": "095ea7b3",
        "balanceOf(address)": "70a08231",
        "buyTicket()": "edca914c",
        "claimPrize(uint256)": "d7098154",
        "claimStakingReward(uint256)": "239cd4a4",
        "currentCycle()": "bab2f552",
        "cycleStakers(uint256,uint256)": "79b7cf92",
        "cycleStartTime()": "335e536c",
        "cycles(uint256)": "afbce3b9",
        "emergencyWithdraw()": "db2e21bc",
        "finalizeCycle()": "ec33d2a0",
        "getApproved(uint256)": "081812fc",
        "getCurrentCycleTimeLeft()": "6d210708",
        "getCycleInfo(uint256)": "48f470ad",
        "getStakedAmount(address,uint256)": "4a84c9ee",
        "getStakingReward(address,uint256)": "8d5103bb",
        "getTicketInfo(uint256)": "ff99a063",
        "getUserTickets(address)": "0484a22f",
        "isApprovedForAll(address,address)": "e985e9c5",
        "name()": "06fdde03",
        "owner()": "8da5cb5b",
        "ownerOf(uint256)": "6352211e",
        "renounceOwnership()": "715018a6",
        "safeTransferFrom(address,address,uint256)": "42842e0e",
        "safeTransferFrom(address,address,uint256,bytes)": "b88d4fde",
        "setApprovalForAll(address,bool)": "a22cb465",
        "stakeTokens(uint256)": "7547c7a3",
        "stakingToken()": "72f702f3",
        "supportsInterface(bytes4)": "01ffc9a7",
        "symbol()": "95d89b41",
        "tickets(uint256)": "50b44712",
        "tokenURI(uint256)": "c87b56dd",
        "transferFrom(address,address,uint256)": "23b872dd",
        "transferOwnership(address)": "f2fde38b",
        "unstakeTokens(uint256)": "608e4dd0",
        "userTickets(address,uint256)": "cf260baf"
    },
    "id": 0
}